:020000041000EA
:1000000000B5324B212058609868022188439860DF
:10001000D860186158612E4B002199600221596106
:100020000121F02299502B49196001219960352056
:1000300000F044F80222904214D00621196600F024
:1000400034F8196E01211966002018661A6600F04E
:100050002CF8196E196E196E052000F02FF8012189
:100060000842F9D1002199601B49196000215960AB
:100070001A491B48016001219960EB211966A021F2
:10008000196600F012F800219960164914480160C1
:100090000121996001BC002800D000471248134993
:1000A000086003C880F30888084703B5996A0420EC
:1000B0000142FBD001200142F8D103BD02B5186610
:1000C0001866FFF7F2FF186E186E02BD00000240BE
:1000D000000000180000070000035F00212200005C
:1000E000F4000018222000A00001001008ED00E03C
:1000F00000000000000000000000000074B24E7A12
:1001000000200420F7010010CB010010CD010010E9
:10011000C9010010C9010010C9010010C901001077
:10012000C9010010C9010010C9010010CF01001061
:10013000C9010010C9010010D1010010D301001045
:10014000C1010010C1010010C1010010C101001067
:10015000C1010010C1010010C1010010C101001057
:10016000C1010010C1010010C1010010C101001047
:10017000C1010010C1010010C1010010C101001037
:10018000C1010010C1010010C1010010C101001027
:10019000C1010010C1010010C1010010C101001017
:1001A000C1010010C1010010C1010010C101001007
:1001B000C1010010C1010010C1010010C1010010F7
:1001C000EFF30580103800BE00BE00BE00BE00BECA
:1001D00000BE00BEF2EB88715C5700107C57001027
:1001E0003802001090A31AE71E481F49086006C88D
:1001F00081F3088810471D480068002801D019487D
:10020000F3E70DA40ECC002902D000F012F8F9E7B4
:100210001749184A002000E001C19142FCD116495B
:100220008847164988471649884700BEFDE701C937
:1002300001C29A42FBD370477C570010C0000020D7
:10024000AC070020685E00100000042000000420BD
:10025000685E001000100420001004200000000060
:10026000704700000000000008ED00E0000000D032
:10027000AC070020BC0E0020653B0010D10200102E
:100280005D3B0010F8B5C046044B10B5002B03D001
:100290000349044800E000BF10BDC0460000000054
:1002A0008C0E0020C4530010F8B5084CD025270050
:1002B00001266C372D06206800F0BAF8320008CC11
:1002C0009A406A62BC42F6D10020F8BD9801002035
:1002D000F0B5DE464E4657464546E0B591B003F0D0
:1002E00067FD414803F0B0FDFFF7DEFF3F4803F034
:1002F000ABFD52231822012102A803F063FE02A8DD
:1003000003F032FE3A4BD02601933A4B36069A461A
:10031000394B9946012398468023019D1B042F00E9
:100320002C009B466C375046296803F011FE42466C
:100330002B689A40B261172B4CD09620043500F000
:100340005BFCAF42EFD14846216803F001FE424614
:1003500023689A407261172B02D180231B04B3617A
:1003600096200434400000F047FCA742EBD1002562
:100370002800032101F030F88B0059182F000C01E0
:100380000135641A2800032101F026F88B00591862
:100390000A01521A64005200E4B2D2B212020321DE
:1003A0002404B81C144301F017F88B0059180A01F3
:1003B000521A5200D2B20021224302A804F042F89D
:1003C00002A804F017F89620400000F015FC0A2D52
:1003D000CED1A1E75B4696207361043500F00CFC9A
:1003E000BD42A0D1AFE7C046C8530010DC53001097
:1003F000980100200054001014540010094A830092
:100400009A1810B514684022544080322240064C9D
:10041000C000A44663441A60044B9C46604441609B
:1004200010BDC04604C0014004D00140004001405E
:100430000123D0228340120693629361094A83000C
:100440009A1811684022514080320A400649C00083
:100450008C4663441A60054B9C4605236044436008
:100460007047C04604C0014004D001400040014034
:100470000FB400B5084883B003F0E6FC049B002BE2
:1004800007D005A91800019103F034FB034803F0DD
:10049000DBFC012003F046FB285400103854001008
:1004A000EFF3108072B6034A1368002BFCD0BFF341
:1004B0005F8F70472C0100D0BFF35F8F0022024B8B
:1004C0001A6080F3108870472C0100D070B5EFF3EC
:1004D000108C72B60D4D2B68002BFCD0BFF35F8FD4
:1004E0000724CB08C618C05C01230C40A3401C00A5
:1004F0000440034207D118433070BFF35F8F2C6074
:100500008CF3108870BD1000FFF7B2FF2C0100D0F3
:10051000F8B54746CE46884680B5EFF3108C72B6E4
:100520001C4D2C68002CFCD0BFF35F8F9A4222D860
:1005300007210126894602E00132934218D34D4635
:1005400037001540AF40D4080119045D2742F3D1AC
:1005500010003C430C70BFF35F8F00220D4B1A60FC
:100560008CF3108800280EDBC0BCB946B046F8BD3D
:1005700001204042EFE7BFF35F8F00232B608CF335
:100580001088012040424346002BEDD00898FFF729
:100590006FFFC0462C0100D0044A1078431CDBB228
:1005A000172B00D9102313707047C0460402002097
:1005B0000021044B044ABFF35F8F02C39342FAD178
:1005C0007047C046000100D0800100D0054B064AAC
:1005D0001360064A136053609360D36013615361E4
:1005E000936170478080808000E400E004E400E0D4
:1005F0001F2318401E3B8340002905D0C021044A18
:100600004900535013607047802201498B50FAE72C
:1006100000E100E070B50D00EFF3108672B60F4AEE
:100620001368002BFCD0BFF35F8F0D4B10309B681D
:1006300084001B590B4A934203D09D4201D000F025
:10064000A1FD074B9B681D51BFF35F8FBFF35F8F09
:100650000022024B1A6086F3108870BD240100D07E
:1006600000ED00E0C1010010024B9C46614489008E
:10067000016070474000003470B5114C114DAC4220
:100680000FD2FF262368002B0CD0FFF785FF010057
:100690002000FFF7E9FFA680BFF35F8F0834AC426C
:1006A000F0D370BDFFF778FF01002000FFF7DCFFFB
:1006B0002671BFF35F8F0834AC42E3D3F1E7C04645
:1006C000A4070020AC0700200A4B1968EFF3108044
:1006D00072B60A68002AFCD0BFF35F8F1B68BFF3B5
:1006E0005F8F00221A6080F3108840BF0020002135
:1006F0007047C046B80E0020F0B5DE4657464E465D
:100700004546E0B587B0EFF30583032201251A4083
:10071000954091008846A946B34B03925C58B34B71
:100720001D60B34B04934B46B24843630823E55E18
:10073000002D37DAA3881BB2002B00DBADE0A379D4
:10074000002B00D0EEE00823E05E002820DB430011
:1007500062691B18DB00D3189E68DD68731C00D12A
:1007600011E1A44801004144826A0B69B71A9B1A3F
:100770009F4215D30123026A039883401A420FD087
:100780009C4800F047FB8D4202DCCCD18642CAD99E
:1007900040BF07B0F0BCBB46B246A946A046F0BD7C
:1007A0000E61EDE762696B0092465B19DB009A44CB
:1007B00053469E68DF6800F02DFB8F42BADC00D103
:1007C00003E1002F00DAE8E05246534652691B6904
:1007D0009346049A934200D1D9E052460821605EC4
:1007E000528800045946104398470090019100999F
:1007F000019A0B001000134300D1CEE013000A0051
:10080000B61A9F41002806DB7A4800F003FB009EE1
:10081000019F36184F4153469E60DF6000229A5E6A
:10082000002A00DA86E7530099186069C900411868
:1008300002938B68C9689B46B94200DD7AE702D112
:10084000B34200D976E708239C46A4440595654643
:100850002281A446029B2C0006E053009918C9008F
:1008600041188D68C968AB469B18DB00C318B942B4
:1008700006DC00D1B3E01C000023E25E002AECDAC3
:10088000230064469C4653461A806346059D1D809E
:10089000A3881BB2002B00DA51E72269EFF3108125
:1008A00072B61368002BFCD0BFF35F8F0123A788BB
:1008B0005B42A3803FB22369BFF35F8F00221A60BF
:1008C00081F31088002F00DA39E723000833220073
:1008D0009A4666697B00DB19DB00F318996850467D
:1008E0008C460824115FDD68002910DB029306E0C6
:1008F000AB4244D00023E15E2000002906DB4C001F
:100900006418E4003419E368AB42F1DD029B078010
:1009100000201F5E1980002FDCDA1400A379002B61
:1009200000D110E70023A37126000823E15E0836FA
:100930004B1C00D12CE70800A246656902E03E008E
:100940004B1C1AD04B005B18DB00EF180A008C46DA
:10095000E95E7B881BB2002BF1DA01235B42DC17D6
:10096000BB60FC60824205D0534631801B893B80CE
:1009700053461A8160464B1CE4D15446E5E6A36811
:100980006345B7D9C2E76B1C00D0EAE6F8E65B46E0
:1009900058461B69984700281BD153461B8822697B
:1009A0002381EFF3108372B611680029FCD0BFF3E6
:1009B0005F8F514662880A8022696580BFF35F8F2E
:1009C0000021116083F31088B4E6864200D8F8E66F
:1009D000B0E65B461A685B680092019307E7B3458F
:1009E00000D848E74CE7C046A40E00203C70054004
:1009F000F90600100040054070B52E4C2569002D09
:100A000004D00A212C48FFF72FFE70BD2B4E032186
:100A1000300000F0F5F9E660FFF7BEFD284B032239
:100A20009C46D02322701B061B6801216370254B56
:100A30006044A3600F23800020610220638063690B
:100A40004942A18019800231198647311D835852CD
:100A500018315A5275325C39995218320131995213
:100A60001832013199521832013199520835183231
:100A70009D5202311832995218320131995218326E
:100A8000013199521832013199521832013199527B
:100A90001832013199520C4B0C49DC60013035623F
:100AA000FFF7B8FD01210320FFF7A2FD084B1D60F1
:100AB000A7E7C04608020020B80E0020004005400D
:100AC00040000034FFFF1000A40E0020F9060010C3
:100AD0003860054070B501000469EFF3108C72B600
:100AE00020680028FCD0BFF35F8F02200D5E4C69A8
:100AF00068004019C00024180869002D36DB2688DC
:100B00004E80BFF35F8F002606608CF31088E36091
:100B100063880498013320615B0405985B0CA26034
:100B200060611A1C002B1FD093B228046280184306
:100B30000A69EFF3108C72B61368002BFCD0BFF378
:100B40005F8F8B8823808D800B69BFF35F8F0022BE
:100B50001A608CF310880B7801329A40CB680849F0
:100B60008C4663441A6070BD0122DDE7BFF35F8FDE
:100B7000002303608CF3108801204042F3E7C04655
:100B80003C20000010B543890A1493421ADD53003B
:100B90009B184269DB00D3180469EFF3108C72B61E
:100BA0002268002AFCD0BFF35F8F5A88090494B2F0
:100BB000090C8A4208D00369BFF35F8F00221A60D4
:100BC0008CF31088002010BD8022120214435C8038
:100BD000012302698371BFF35F8F002111608CF3E1
:100BE0001088044902788C469340C2680120624410
:100BF0001360E8E73C200000F0B5C64600B582B0BF
:100C0000040000F00FF9FA2206000F002000002374
:100C10000021920001F02CFA8019794104000D1E88
:100C200002DA01242E4D644206267642F717361961
:100C30006F41AF4214D811D000F0F4F832003B00FD
:100C4000121A8B41002B15DC002B46D02000290006
:100C500000F0F2F802B080BCB846F0BDA642EBD975
:100C60000026002700F0DEF832003B00121A8B410C
:100C7000002BE9DD00F0D6F832003B00121A8B4160
:100C8000002B0ADB00230193164B32000093164819
:100C90003B00FFF71FFF0130D8D000233900B046DA
:100CA0009C46124A1248536A994204D8966AB04543
:100CB000CCD99942CAD10668EFF3108772B633686F
:100CC000002BFCD0BFF35F8F0368BFF35F8F6646D6
:100CD0001E6087F3108820BFE5E7002AB6D0C9E779
:100CE000FFFFFF7FC90600100802002000400540FA
:100CF000B80E0020F0B557464E46DE464546E0B5F4
:100D000006000F0085B0EFF3058399468B46002B54
:100D100012D0384900204B6ABB4206D38A6ADB1BDB
:100D2000591E8B41B2424041184305B0F0BCBB464E
:100D3000B246A946A046F0BD2F4B9A46DB689846BE
:100D400053461B784046039300F064F84246039BE9
:100D5000040004339B009B580D001B1A390030001F
:100D6000001BA941894510DC0DD020BF214A00207D
:100D7000536A5B45D9D3926ADB1B591E8B41B24241
:100D800040411843D1E78342EFD900F04BF83200DD
:100D90003B00121A8B41002B1ADB00230193174BE7
:100DA0003200009350463B00FFF794FE011E0FDD1A
:100DB000104B5A6A5A451BD39B6AB34216D350460E
:100DC000FFF7E0FE0B4A0020536A5B45ADD3D2E744
:100DD000084A0020536A5B45A7D30020926ADB1BB8
:100DE000B24240415A1E934118439EE75A45E6D10C
:100DF00020BFE4E70040054008020020C9060010BB
:100E000010B5024A0248FFF761FB10BD3C540010C8
:100E1000480E00200300416A0A00986A596A8A4213
:100E2000FAD17047034B596A0A00986A596A91428D
:100E3000FAD1704700400540064A536A9942FCD8EF
:100E400007D1044B02E05A6A914202D19A6A904259
:100E5000F9D8704700400540F8B5DE464E46574683
:100E60004546E0B58B4605000A991800160000F0CB
:100E7000DBFA0A9B6C001F02324B64199C46A400EB
:100E80006444636881469F4200D967602B1FDBB2D0
:100E90009846012B30D9C02380229B01E318120110
:100EA0001A60294BAD0059599A4600291BD173018C
:100EB000E026226853401E40802342465B01E3182F
:100EC0001E60012A30D9802380229B01E318120181
:100ED0001A6053464A4667605A51F0BCBB46B24658
:100EE000A946A046F8BD586900F09EFA01304300BB
:100EF0001B18033BFDD2DAE75B46012BCBD1C023A5
:100F000003229B01E3181A60023AA3681A42FCD03C
:100F10007301E0262268AD0053401E4080230A4A38
:100F20005B019246E3181E605A4621685140032235
:100F30000A401A6001225B469A40A3681A42FCD01C
:100F4000C1E7C04600800040500E0020F0B5464684
:100F50004F46D646C0B51F00344B44009C4624186B
:100F6000A4006444636888461600FF2B02D88023DF
:100F70005B006360031FDBB29A46012B30D9C023AC
:100F800080229B01E31812011A60294B85005959F0
:100F9000994600291BD17301E026226853401E4068
:100FA000802352465B01E3181E60012A30D980235A
:100FB00080229B01E31812011A6080235B006360AA
:100FC0004B465F51E0BCBA46B146A846F0BD5869F1
:100FD00000F02AFA013043001B18033BFDD2DAE788
:100FE0004346012BCBD1C02303229B01E3181A6097
:100FF000023AA3681A42FCD07301E02622688500F9
:1010000053401E4080230A4A5B019146E3181E604C
:1010100042462168514003220A401A600123424699
:101020009340A2681342FCD0C1E7C0460080004054
:10103000500E0020014B8000C0587047500E002019
:10104000F8B5040021481E0017000D0000F0ECF96F
:101050000100380000F0E8F9069B36041B031E432C
:101060002368002B20DB1A4B1A49E3185A1E9341C0
:101070008022920194465B421B0B174A1B03634478
:101080001360164A13601F000A689743FBD1144B84
:101090002560E2182123A06013602368002BFCDA8E
:1010A0000823E6601360F8BD3F2322681340AB427B
:1010B000D9D1A3681B051B0D8342D4D1EE22E3686E
:1010C000D2021340B342CED1EDE7C046001BB700B9
:1010D0000040FDBF08C0004000E0004000F00040BC
:1010E000043000008023024A9B000B43D362704708
:1010F00000800540002310B50100988A1B8B98479B
:1011000010BDC046162310B50100188802331B8895
:10111000984710BDF8B54746CE4680B50F1E18D08B
:1011200014239946043304000025012698464B46B3
:101130001888434621681B88984701C4431E98417C
:1011400001350640AF42F2D13000C0BCB946B046CE
:10115000F8BD0126F8E7C046AA23064A1B01136022
:101160008D235B00D3600449044B19605368002B46
:10117000FCDA70470040024000B0FA000060024014
:101180007047C04610B50148FFF772F9605400106F
:1011900070B5074D074EB54209D20024013E761BBB
:1011A000B60808CD984723000134B342F9D170BD89
:1011B00080530010BC530010054B064A06491A60C4
:1011C000064A074B1A6010000B689843FBD1704722
:1011D00000E00040BFCDFBFE08C00040FE7F3C00A9
:1011E00000F00040044BDB6C002B03D18022034B4A
:1011F000D2021A607047C046000011504C201150B6
:10120000044A054B1A60054A1368DB018033FBD1A1
:101210007047C046FFFFFF0100F0004008C00040DB
:101220004022034B9A675A671A67DA667047C046CE
:1012300000F0014010B5FFF7BBF910BDF8B5274924
:10124000274C284D641AA6103200302E00D93022C7
:101250002800920000F0E6FFBC2C3BD830202F2362
:101260002C196407204A801BE40F9B1B052B16D901
:101270003700002C02D0B300771CEA50001B331952
:101280009B004108EB18C900C9181A605A6008335E
:101290009942FAD1012303421CD09843C619B300E6
:1012A000EA50731C2F2E15D09B00EA50B31C2E2E33
:1012B00010D09B00EA50F31C2D2E0BD09B00EA505F
:1012C000331D2C2E06D09B00EA50731D2B2E01D00F
:1012D0009B00EA50054B9D60F8BDC0460001001020
:1012E000C001001000000020C101001000ED00E06E
:1012F000002310B5294C82B0A367FFF72DFF012210
:10130000274B1A60636C012BFCD10322254B1A601A
:10131000224A936B012BFCD1013300930121224A15
:1013200022480433FFF78CFE052301210093204A55
:101330002048FFF785FE0022022104201E4BFFF704
:1013400005FE0022012105201C4BFFF7FFFD0022B6
:10135000002107201A4BFFF7F9FD00220021082089
:10136000174BFFF7F3FD8023DB00009300220021E1
:101370000920134BFFF770FD0022104B00210620BF
:10138000FFF7E4FD0420FFF755FE0E4900F04CF88E
:1013900001000020FFF7A6FE02B010BD0080004053
:1013A0003CB0004030B00040002F6859008002403F
:1013B000008C864700C00240001BB70040597307ED
:1013C000006CDC0240420F0001480421014B184729
:1013D0002002002015110010124A936F9B0815D2AD
:1013E0009066D166002905D0FFE7FFE7FFE7516F60
:1013F000106F704704B580210906C21751400028BC
:1014000000D0C84303F0ACFF002104BDF0B5146E5A
:10141000556E576F166FFFF7E3FF146655665767F3
:101420001667F0BD000000D0114A936F9B0813D2DD
:1014300010665166002905D0FFE7FFE7FFE7516F0F
:10144000106F704704B5002801D00020C04303F09E
:1014500087FF002104BDC046F0B5146E556E576F6E
:10146000166FFFF7E5FF1466556657671667F0BD00
:10147000000000D094464A4A926F9208624601D218
:1014800028E0C046F0B5464E346E756E776F366F05
:1014900000F020F89446424A14665566576716676E
:1014A0006246F0BD94463E4A926F9208624601D26F
:1014B00054E0C046F0B53A4E346E756E776F366FB5
:1014C00000F04CF89446364A14665566576716671E
:1014D0006246F0BD002B24DB11D000293EDA00B5B6
:1014E000C943404200D1013100F038F8C9434042BD
:1014F00000D10131DB43524200D1013300BD002A4B
:10150000EBD1002801D1002905D00020C90FC9075F
:1015100001D1C043410800B503F01AFF00220023A7
:1015200000BD00B500290ADBDB43524200D1013384
:1015300000F014F8C943404200D1013100BDC94355
:10154000404200D10131DB43524200D1013300F06F
:1015500005F8DB43524200D1013300BD002923D1FD
:10156000002B18D1002A0CD0BC460D4F38667A6685
:1015700000210023FFE7FFE7FFE77A6F386F674638
:101580007047002801D00748010000B503F0E0FED5
:101590000022002300BD02000B0000200021704744
:1015A000000000D0FFFFFFFF002B00D0BFE0130CB6
:1015B00028D1002AE7D080B4114F39667A66FFE758
:1015C000FFE730B4040C7B6F396F1B0423433B6689
:1015D0007A66FFE7FFE7FFE7C04684B27B6F3D6FA7
:1015E0001B0423433B667A66FFE7FFE7C046002300
:1015F0002C042D0C7A6F386F00196941B0BC70470C
:10160000000000D0F0B594460025140E01D112025E
:101610000835140F01D112010435940F01D1920045
:101620000235D40F01D152000135D40B0134254FBE
:101630007C66254C3C660E0C93B2FFE7FFE7FFE7A4
:101640003C6F6643360C7703BE467343DF0B5B0487
:10165000C01AB941130C7343DB18C91ACE0866438C
:10166000360CB64493B273431F0F1B01C01AB94125
:10167000130C73431F0B1B05C01AB941860D8F0253
:101680003E436643360C092D24DB520A7243801A0E
:101690007703460A6643360C16235B1BDE40DF40A9
:1016A000BF1964466643821B704604350633010049
:1016B000D940A840C01900D30131A24206D200236C
:1016C000F0BD0000000000D0FFFFFFFF121B013043
:1016D000F3D3F1E709277F1BFE406446A2B27243B1
:1016E000801A00D20139220C7243130C1204821AA0
:1016F00099410B007046043513370100F940A840AA
:10170000801900D30131002B02D1A2420AD2F0BDD0
:10171000013000D30131121BFAD2013BF8D1A242B1
:1017200000D2F0BD013000D30131121BF7E7F0B554
:101730001C0C00D080E00CB400251C0A04D11B0254
:10174000160E3343120208351C0B04D11B01160F71
:101750003343120104359C0B04D19B00960F334395
:1017600092000235DC0B02D192185B4101351C005E
:10177000971864410134464F7C66464C3C660E0C1B
:10178000FFE7FFE7FFE7C0463C6F6643360C770391
:10179000BE4697B27743C01B00D20139C01B00D2AE
:1017A00001399FB27743C91BC91B170C77437E04CD
:1017B000FF0B801BB941CE086643360C0C2D33DB82
:1017C000B644120B1F053A431B0B97B27743C01B5D
:1017D00000D201399FB27743C91B170C77433E04EF
:1017E0003F0C801BB941860D8F023E43664329277B
:1017F0007F1BFE400C3D7746AF40BF1930BCA2B204
:10180000ABB272437343801A9941220C7243130C9A
:101810001204801A994102000B000137001BA941F4
:10182000F9D2781E0021F0BD0C277F1BFE407746C1
:101830007F0BAF40FF19E0E700245D1C07D0144F79
:101840007D663966FFE7FFE7FFE7FFE73C6F95B28C
:101850009EB265436643401BB141150C1E0C6543A7
:10186000664336042F0C3E432D04401BB141994280
:1018700004D202000B0020000021F0BD01D19042F3
:10188000F7D3801A994101349942F2D3F6E7000068
:10189000000000D0FFFFFFFF48404140484018B41F
:1018A0001B4B5B68FC46019308BD04DF431B001023
:1018B00018B4174B1B68FC46019308BD00DF4D1B95
:1018C00000109446134A926F920809D2624618B4E7
:1018D0000F4BDB68FC46019308BD0CDF051E0010B2
:1018E0000C4AF0B5146E556E576F166F6246FFF7CF
:1018F000EEFF084A1466556657671667F0BD18B4C0
:10190000034B9B68FC46019308BD08DFA91C00102F
:1019100030090020000000D0FFB550404240504048
:1019200059404B40594000E0FFB5154F4C00640D45
:1019300003D0BC4204D10C0314D80020090D0905C2
:101940005C00640D03D0BC4204D11C030AD8002201
:101950001B0D1B0501264B4009D44B4003D58B4280
:1019600000D18242FFBD9942FCD19042FFBD0B43A2
:10197000DB1803431343F5D0C9434918FFBD0000EA
:10198000FF07000000B5FFF7CFFF804100BDC04654
:1019900000B5FFF7C9FF01D9002000BD012000BD3F
:1019A00000B5FFF7B9FF01D9002000BD012000BD3F
:1019B00000B5FFF7B1FF804100BD012040054A009E
:1019C000121804D85A00121801D8002070470120BC
:1019D000704700000021002805D17047C11748401A
:1019E000401AFAD0C90713B5064B1B6898470CBCC0
:1019F000441CA2401005120B0349091B0905194399
:101A0000114310BDB40E00201F04000010B54C009F
:101A1000620D8023D218DB00D21A5B057E2A10DD0E
:101A20009E3A13DACC170903490819435242D140B0
:101A3000640001341532202A05DAD040084360439F
:101A400010BD002010BD0846604310BDC80FC0186F
:101A5000013810BD18B4044B5B6AFC46019308BD05
:101A600024DFB51F0010000030090020132370B5DB
:101A70001D78012D19D014DD1F48FFF743FB060028
:101A80001E48FFF73FFB1E4C80223100200000F073
:101A9000C9FB022D2DD01B48FFF72CFB1A4B1860F9
:101AA00070BD1A4B164CA364F5E7184B144C236019
:101AB0006360A360E36023616361A361E361236208
:101AC0006362A362E36223636363A363E3632364E8
:101AD0006364A364E36423656365A365E3652366C8
:101AE0006366A366E36623676367A367E367A3642C
:101AF000D1E7064BA364CEE75344000053460000F1
:101B0000300900204C330000B40E0020111B0010DF
:101B100007B5604601880A0A0230DF2AFAD1C9B245
:101B2000820804D3028840880004104300E0006863
:101B3000014A5050039007BD300900200FB403BC88
:101B40000CBCF0B50124E407634000E0F0B50C0DD7
:101B5000CF0F661E3605891B640503D3C943404277
:101B600000D30131640D03D0661CF60A07D0E41BD4
:101B700000207F00791C89078912803C24031D0DF9
:101B8000DF0F6E1E36059B1B6D0503D3DB435242F0
:101B900000D301336D0D03D06E1CF60A07D0ED1B88
:101BA00000227F007B1C9B079B12803D2D032F1B77
:101BB000661B58D4A446202E46DA20371400BC40B9
:101BC0001D00BD40F24033412A4380185941CB0FDC
:101BD00005D0C943C043002264425041514162468E
:101BE0004D0D28D10D0D07D100281FD024194041DB
:101BF0004941013A0D0DF9D0640006D3013000D3FC
:101C00000131002C01D140084000013A0BD4941C52
:101C1000E40A04D112051144DB071944F0BDD907C9
:101C2000204B194300E0D9070020F0BD0029DDD189
:101C3000002CDBD1F0BD0132C6074008CD07284398
:101C40004908002EE1D0D9E73C2E29DA203E403762
:101C50001400BC4000D00124F24014431A00BB40E1
:101C60001C43D317ACE7AC46202F08DA203604001B
:101C7000B4400D00B540F84039412843A5E73C2F5A
:101C80000CDA203F40360400B44000D00124F84074
:101C900004430800B1400C43C117EAE710001900E3
:101CA000002494E70000F07FF0B50C0D661E3605A9
:101CB000891BE60A6405640D02D0651CED0A04D098
:101CC000002001210905803C2403A4461C0D671E49
:101CD0003F05DB1BE70A6405640D02D0651CED0AB5
:101CE00004D0002201231B05803C24037740644478
:101CF00097B484B296B27443070C7E43150C6F43BD
:101D000080B26843361802D3012000043F18300423
:101D1000350C00197D41844688B29AB250430C0CB0
:101D200062431F0C7C438EB27E43921902D301267C
:101D30003604A4191604170C3618674101BC81B289
:101D40009AB25143040C62431B0C5C4380B258436B
:101D5000121802D30120000424181004130C401898
:101D600063412D185E410020474106BC88B293B202
:101D700058430C0C6343120C544389B251435B1813
:101D800002D301210904641819041A0C09186241CC
:101D90006D1856410020474118BCF902720D1143DD
:101DA000F0026A0D1043ED020A0D03D16D19404196
:101DB0004941013B124E9B1B7600B3420ED26D008F
:101DC00007D30130002671416646354301D14008F2
:101DD00040001B05C918E4072144F0BD0BDA0133AC
:101DE00006D1013004D101314F0D01D04908F2E78D
:101DF000E1070020F0BD013631050020EBE70000CF
:101E0000FF030000F0B51C0D671E3F05DB1BE70A52
:101E10006405640D02D0661CF60A04D0002201237A
:101E20001B05803C2403D0252D060026F6432E6694
:101E30001E096E66CE0FF619B44649004F0D02D04A
:101E40007E1CF60A03D000200021403F3F033E1BCA
:101E5000B600B444013F7F05C91B49082E6F013607
:101E600076089C02950D25437543ED137543AD131C
:101E700001356D10F603761B0CB4CC02450D2C43D6
:101E8000A2B2B3B25A43270C7B43350C6F43A4B2C2
:101E90006C431B1902D3012424043F191C041D0C9C
:101EA000A4187D4124196D41009A91B2ACB26143EE
:101EB000170C7C432B0C5F4392B25A43A41802D3F5
:101EC00001221204BF182204230C52187B41019CEA
:101ED0006C431B19520ED9010A434401A01A81B266
:101EE000B2B2514303145A43360C734387B277435B
:101EF000D617D21900277E4136049B191704160CF9
:101F00007F185E417316ED18F3010026803375418A
:101F1000A90F06D16400690AE8055B0A184309D2D3
:101F20002FE00422944480337541A90AA8059B0A36
:101F3000184326D3404149412404009A019B0D00D7
:101F40005543641B4343E41A95B286B27543170C9C
:101F50007E43030C5F4392B25A43B61802D3012268
:101F60001204BF183204330C52197B4152429C4177
:101F7000002C02D40022013051414008CA0710430E
:101F8000490802B06246D7079210084BD218084B96
:101F90009A4203D212058918C919F0BD0020002AFF
:101FA00001DC3900F0BD01331905F5E7FD03000040
:101FB000FE070000002200B5203200F004F80800FF
:101FC00000BD000000220B150AD410B5944600F0A5
:101FD00031F81414013400DA0021CB17144C2047D7
:101FE0000020002170476244343A0CD40C2A07DAEE
:101FF00004009140904052422032D440214310BD11
:10200000D843D94310BD203207D40C4694405242E5
:1020100020321141D040204310BD0800C9172032A2
:1020200003D452422032104110BD1800190010BDD7
:10203000E71F00100A0DCC0F531E1B05C91A5205CD
:1020400003D3C943404200D30131520D03D0531C86
:10205000DB0A07D0121B00206400611C890789126B
:10206000803A1203014BD21A70470000FF030000B0
:1020700051434343C9188C46110C83B24B4310B4EF
:10208000040C614392B280B2504362431C041B0CA7
:10209000001910BC59411304120CC018514161447D
:1020A000704700004840414048400E4B5B6818476D
:1020B0000C4B1B6818470C4A936F9B0802D2094BC4
:1020C000DB681847F0B5146E556E576F166FFFF743
:1020D000F6FF054A1466556657671667F0BD014B53
:1020E0009B681847300A0020000000D0491A0028D9
:1020F00008D1084670470000C10FC90700D540420B
:10210000002817D0F44603B40B4B1B68984706BC55
:1021100081409E384042803107D20B0607D04900EB
:10212000490AC0051043084360470130F8E7490AEF
:102130008902F5E770470000B40E0020014B5B6A8E
:1021400018470000300A0020132310B512481C78ED
:10215000FEF7D8FF0100012C0AD003DD80220F48D2
:1021600000F060F80E48FEF7C5FF0E4B186010BD7A
:102170000A4C5422200000F055F80B4B6365A36510
:10218000E36523666366A366E36623676367A36705
:10219000E3672362E361E5E753460000300A00206D
:1021A0004C330000B40E0020AD21001007B560468E
:1021B00001880A0A0230DF2AFAD1C9B2820804D3A0
:1021C000028840880004104300E00068014A505033
:1021D000039007BD300A002070B505000C0002F026
:1021E0002FFB6C43002804D0034B04199C4200D8F9
:1021F00070BD0248FEF73CF9000004206C5400104A
:1022000010B502F07DFB10BD01480421014B1847B9
:102210003002002015110010014B1B681847000008
:1022200030020020014B5B6818470000300200209C
:102230007047C046F8B55746DE464E464546E0B5BF
:1022400099460A9B07009A460D9B884693460B9C2D
:102250009B073BD10C9B9C423DD21E1B0B9415004F
:102260000C005E442A004B46013521002020B8476F
:10227000B542F7D1A0460B9C002C20D0454636191C
:102280005346321B013C185D29004B46B847002CD1
:10229000F6D12B00350098460D9B9B070FD55B466A
:1022A000EC1A0C9BA3420AD9464698462A004B4694
:1022B000310020200134B84701354445F6D32800C9
:1022C000F0BCBB46B246A946A046F8BD16001500B4
:1022D000002CD3D1E0E716001500002CCED1EEE79C
:1022E000F0B54546DE4657464E46E0B585B09C46BD
:1022F00010AB1B78149F934698460F9C129E139D1B
:10230000BB074CD4002D42D1B44248D201233B40FC
:1023100099460E9B013B9A46302304E05246013415
:102320001355A64201D9202CF8D14B46002B00D1E1
:1023300083E00E9B013B99463023A54205D82EE051
:102340004A4601341355AC4229D0202CF8D1FB0663
:102350000CD57B0554D4A64263D0A54261D0119B15
:10236000102B50D0022B57D0202C32D12023019398
:102370000E9B5A460093039763460295FFF75AFF58
:1023800005B0F0BCBB46B246A946A046F0BD01234D
:102390003B40994601233B422AD1B442B9D3FB06C4
:1023A0001CD57B05DBD4002CD5D1119B102B5BD029
:1023B000119B022B6BD0302301240E9A13704346DD
:1023C000002B10D17B073ED52B260E9A631C165589
:1023D000CDE72300013430260E9AD654202CC5D0E8
:1023E0004346002BEED02D260E9A631C1655BEE7F1
:1023F0004346002B2FD0013DB44200D289E798E735
:10240000119B102BB2D1BB0637D5202CAED0582350
:102410000E9A13550134A7E7202CA7D023000134CE
:1024200007E0631E012CC0D0119A102A31D0022A75
:10243000D1D162260E9AD65496E7FB06CED57B05FF
:1024400000D488E78BE723003E0790D520260E9A1C
:10245000013316558BE70C233B405A1E9341ED1A6E
:10246000B44200D255E764E7BB060ED478230E9A37
:102470000224137030235370A1E7202C00D175E79C
:1024800078230E9A135501346EE75823EFE7603333
:10249000EDE70E9AA61E91464E44BA0602D5582282
:1024A000327098E77822327095E7C04610B5002860
:1024B00000D110BD01F07EFCFBE7C0460B0010B55B
:1024C000002802D049681B68984710BDF0B55746F0
:1024D000DE464E464546E0B595B083460F0092462F
:1024E00098461E9A1F9B10001900209EFFF765FA60
:1024F000002800D0EAE11E981F990122C54B5242E4
:10250000FFF740FA002800D014E11E981F9901221D
:10251000C14B5242FFF74CFA002800D0E9E01E9868
:102520001F990022BD4BFFF743FA002800D0C8E0F6
:102530001E981F990022BA4BFFF724FA002800D0FA
:10254000BFE01E981F9900220023FFF71BFA002806
:1025500000D0E4E000230B93229B5B0500D4062609
:102560000024302307E0172106AA0134521813551E
:10257000013E202C01D0092EF5D81E981F99FFF797
:1025800045FAA84BF2009B181A685B680500089290
:102590000993FFF723FA02000B001E981F99FFF71B
:1025A0007EF9089A099BFFF7AAF906900791FFF7B1
:1025B00051FA8146FFF70EFA02000B0006980799C0
:1025C000FFF76DF90022984B06900791FFF7F0F99D
:1025D000002800D10DE101239C46E1444846FFF765
:1025E000F9F902000B0008980999FFF7D1F90028C2
:1025F00002D0002399460135002E00D1D9E006957E
:102600004D46B94614E006AA944617230A216344AE
:10261000280001341F19FEF707FF303139702800F8
:102620000A21013EFEF700FF092D00D817E1050041
:10263000202CE8D14F46069D20240CAE06AA172375
:102640009446634499465B46B34606930FE04B4677
:1026500028000A210134E618FEF7BEFE30312800BA
:1026600031700A21FEF7B8FE051E00D1E4E0202CEF
:10267000EDD1069B5E469B460323229A1340012B15
:1026800018D1219B002B15D00B9B002B00D1FDE016
:10269000219B013B2193202B0CD93023219A07E069
:1026A000172006A9013409180B55944200D3CCE039
:1026B000202CF5D1229B01940393219B0096029339
:1026C00022E0229B52460493219B390003935846F3
:1026D0001E9B1F9C029600930194434600F04AF90A
:1026E0000400200015B0F0BCBB46B246A946A04687
:1026F000F0BD229B5B070FD403224C4B2299019221
:10270000039121990093029143465246390058465D
:10271000FFF790FD0400E4E70422454BEEE71E9A24
:102720001F9B00200021FFF7BAF801231E901F9184
:102730000B9311E7229B54469B0711D1219B042B3D
:102740000ED9219B55469C465E46043C64442A00B3
:102750004346013539002020B047A542F7D1B346A2
:10276000344D26002B1F99465B46A3461C003200C1
:10277000E87843463900013DA04701364D45F6D182
:1027800023005C469B46229B04349B07A9D55346F5
:10279000219AE31A9A42A4D95E46150022004346C4
:1027A00039002020B04753460134E31A9D42F5D842
:1027B00097E72800FFF712F902000B001E981F99F7
:1027C000FFF76DF80022184B06900791FFF7DAF833
:1027D0000CAE002800D031E7069807990022124B72
:1027E000FFF7E6F8002800D028E7012301359D43D4
:1027F00024E70022069807990B4BFFF7C3F800283F
:1028000000D0F9E64B46002B5CD101239C46E14405
:10281000F2E6C046FFFFEFFFFFFFEF7F65CDCD4142
:1028200065CDCDC1F85600100000E03FC85400103F
:10283000C0540010D0540010069B5E469B460323F4
:10284000229A1340012B00D181E0202C00D131E7E6
:102850000B9B002B27D02D23335501342AE74F46FD
:10286000069D202C00D1E7E63022331907E017201F
:1028700006A9013409180A55202C00D1DCE6A34230
:10288000F5D12E220CAE0134F254D7E60C23229A55
:10289000134257D0219B013B2193A34200D9FCE670
:1028A000202C00D106E7229B5B0703D52B23335551
:1028B0000134FFE6229B1B0700D4FBE6202333559F
:1028C0000134F7E6DB0700D496E69EE7229B5546E7
:1028D0009B0711D1219B032B0ED9219B54469C466B
:1028E0005E46033D65442200434601343900202002
:1028F000B047AC42F7D1B346B9465F461C4EEC1C1C
:102900002A00B078434649460135B847013EAC42FB
:10291000F6D1229BBB464F469B0700D4E1E65346C7
:10292000219AE31A9A4200D8DBE65E46150022009F
:10293000434639002020B04753460134E31AAB42E6
:10294000F5D3CEE6219BA34200D9A6E6B2E6219BB1
:10295000002B00D179E70B9B002B97D0219B013BEB
:1029600021939C4200D298E6202C00D073E7A1E688
:10297000CC540010F0B5DE4657464E464546E0B50D
:1029800099B081468B4692469846229A239B100026
:102990001900FFF712F8002800D0CAE02298239906
:1029A0000122824B5242FFF703F8002800D0C0E01A
:1029B0002298239901227E4B5242FEF7E3FF002822
:1029C00000D0B6E02298239900220023FEF7DAFF18
:1029D000002800D0C9E1229B239C08930994089801
:1029E00009998023269ADB001A400D928022269CAA
:1029F0001201144022000B94269C07000E001C427A
:102A000000D0ADE00B00034300D0D5E0002A00D099
:102A10000AE2220006332493022313400C9302237C
:102A2000134200D002E2259B042B00D20FE2043BAC
:102A30000B93002304250A93002222982399002354
:102A4000FEF7A0FF002800D003E25A4B269A13405D
:102A500004930B9B0393249B0293089B099C009374
:102A600001945946434652464846FFF72FFD02005F
:102A70002020269B1F27034059424B415B421840B0
:102A8000531C0893594643464530C8470A9AD31702
:102A9000D4185C40D30F0A936B1E0B9308AB9C4673
:102AA0000025674401E0202D0FD020000A21FEF709
:102AB000BBFC01357E193031317020000A21FEF750
:102AC000B3FC26000400092EEDD8052306930B9BCA
:102AD00059460593002304930A3303930A9B4846FF
:102AE000029310AB0093089A43460195FFF7F8FB59
:102AF0000C9B002B2DD05346C41A259BA34228D9EA
:102B00004D465F4681461E00534639001A19202063
:102B100043460134A847A642F6D85346484625996D
:102B2000C21A01320023914200D386E10130181805
:102B30000FE0269B0493259B0393249B0293229BE7
:102B4000239C009301944346524659464846FFF75A
:102B5000BDFC19B0F0BCBB46B246A946A046F0BDCC
:102B600001432BD10B9B2200002B00D154E7002303
:102B70000A93249B0A9A0024934200DD85E122985F
:102B8000239900220023FEF7FDFE002800D035E146
:102B9000269B084A02941A408023DB0013430493C7
:102BA000259B0393089B099CCBE7C046FFFFEF7F63
:102BB000FFFFEFFFFFF7FFFF06232493B44B7000E6
:102BC0009C46400D6044FEF709FFB24AB24BFEF747
:102BD00096FEB24AB24BFEF76BFE3603B14B360B94
:102BE000334304000D00380019000022AE4BFEF7FD
:102BF00056FEAE4AAE4BFEF782FE02000B002000EE
:102C00002900FEF755FEFEF701FF0A90FEF7E6FEEB
:102C1000A84AA94B04000D00FEF771FE0022A74B45
:102C2000FEF746FEFEF7F2FEA54A0600A54B200081
:102C30002900FEF764FE040030000D000C96FEF73C
:102C4000CDFEA14AA14BFEF75AFE02000B00200068
:102C50002900FEF724FE02000B0006000F00FEF71D
:102C60004EFE320004000D003B0030003900FEF73C
:102C70001FFE00220E900F91954B20002900FEF7B9
:102C800020FE0022934BFEF713FE02000B002000F3
:102C90002900FEF716FE00228F4BFEF709FE020008
:102CA0000B0020002900FEF70CFE0D00802104001F
:102CB00032003B000020C905FEF7F1FD02000B00C9
:102CC00020002900FEF7F4FD02000B000E980F997A
:102CD000FEF7F7FD0022734BFEF7EAFD7F4B0C9CDD
:102CE0009C46644400222305FEF709FE06000F00FF
:102CF00002000B0008980999FEF744FE00280AD04C
:102D00000A9B3000013B39000A930022714BFEF709
:102D1000D8FD06000F000A9A330063323900C62A34
:102D200012D802222698042510400B9A0C90002AF3
:102D300025D1259B042B05D9002800D0A1E0259B97
:102D4000043B0B93042541E00222269810400B9A85
:102D50000C90002A12D1259B052B76D9002872D120
:102D6000259B0525053B0B9334E0802212069446F3
:102D7000229B0893239B6344099330E605250B436C
:102D800000D1F6E608980999554A564BFEF708FE19
:102D9000002808D0089809990022534BFEF7F2FD4D
:102DA000002800D0E5E6249B002B1CD00D9B002BB7
:102DB00019D0249B013B2493259BAB4204D90C9B47
:102DC000002B5AD002230C9300230B930A9B002B59
:102DD00000D131E60898099932003B00FEF771FDF9
:102DE0000890099128E6259BAB42EDD90C9B002B5E
:102DF00043D000230B9302330C93E7E78020269BFC
:102E00003A4A00061A40802384460294089C099D91
:102E10002900DB0013430493259B614422000393A4
:102E20000B00009201938EE60524A8E600230B9385
:102E30000A93023304250C93FEE553468C46013B6E
:102E400063441B1A72E602230C930525C2E7042390
:102E5000EDE58020089E099F000639008446269AE9
:102E6000224B6144134004930B9B32000393249B39
:102E700002930B0000920193F3E5259B5B1B0B93E0
:102E8000A4E7022304250C93A0E79C1A013C76E6F4
:102E900001FCFFFFFB799F501344D33FB3C8608B05
:102EA000288AC63F0000F03F0000F83F61436F638F
:102EB000A787D23F71A379094F930A400000E03FF2
:102EC0001655B5BBB16B0240EF39FAFE422EE63F14
:102ED00000002C400000244000001840FF030000C8
:102EE0002D431CEBE2361A3F80842E41FFF7FFFF93
:102EF000F0B5DE4657464E464546E0B5A5B01E0045
:102F00002E9B92460C93CD4ACD4B80468B461A6041
:102F1000002900D1EAE1002330789946002800D149
:102F2000ECE1C84B4C460B93C74B454657460E93B6
:102F30000AE0631C984622003B005946A8474446D5
:102F40003078002800D187E001362528F1D1082308
:102F50009A46043B9946023B9846013B00229C4618
:102F60000D943078711C0300203BDBB2102B03D88A
:102F70000B9C9B00E3589F460300303B89460D9C09
:102F8000092B3AD9002398462A2800D1C1E0002312
:102F90009A462E284BD00300683BDBB2122B1ED87A
:102FA0000E999B00CB589F4663460E001A43D8E704
:102FB00043460E001A43D4E74B460E001A43D0E7AF
:102FC00010230E001A43CCE753460E001A43C8E7FD
:102FD00080235B001A43FF3B9C467078E1444E46D9
:102FE00067284FD82428A4D90300253BDBB2422B05
:102FF0009FD896499B00CB589F46002394461E00BD
:1030000000E00131B3009B195B001E180878303EC8
:103010000300303B092BF4D90123624689469C46C4
:103020000023B0469A460E00E1442E28B3D1302149
:10303000802049428C46C000024370784B4684444D
:103040006146092900D86CE12A2800D17AE10123E0
:103050009C464E46E1449EE7A146A846BA46CA456C
:1030600003D801235B425344994653464A46594686
:103070000020C047200025B0F0BCBB46B246A946A0
:10308000A046F0BD0300693BDBB20D930F2B00D9C6
:103090004FE7012199408C466D49894661464B4670
:1030A00019400F91634649460B4200D028E10D9B21
:1030B0000A2B3AD0072B00D03BE70C9B190008C91C
:1030C0008846002B00D14BE121200243914614A9F0
:1030D0008C461F220F2162448C4651460D950C915F
:1030E000A24615000F9902E020290CD01300644677
:1030F0001C4020003730092C00D8073801316854B3
:103100001A090F2BF0D80C9B54460D9D9A460F912F
:1031100033E10C9B02CB8846002947DB0C9301234B
:103120009C4670784E46E14431E70C9B02CB1493E9
:103130005346002B00D138E19C4608780B000C90D8
:103140008C44002801D100F098FC894661469446E1
:1031500003E05A780133002A01D08B42F9D1494665
:1031600062465B1A0C900F93530500D520E10223B1
:10317000180010400D90134200D1CBE30D930B1BB0
:10318000B1469A465E460C9822003B003100A847A3
:1031900053460134185D0028F6D1B3464E460D9BC8
:1031A000002B00D0C7E1149B0C93C9E60C930123BC
:1031B0009C46283849420243884670784E46E1448E
:1031C000E5E670786C2800D17FE180235B001A432C
:1031D000FF3B9C46E14402E780239B001A43012306
:1031E0009C467078E144FAE67078682800D173E173
:1031F00080231A437F3B9C46E144F0E6672800D1D8
:1032000003E1472800D15AE1452800D15AE1049250
:10321000072142460C9B0392073352468B43190009
:1032200002920CC92800009201930C9122003B00ED
:103230005946FFF79FFB040082E6C046F12E0010BE
:10324000880E00205C550010A0550010EC550010B1
:1032500041900000462800D1DBE00492072142465D
:103260000C9B0392073352468B43190002920CC900
:103270002800009201930C9122003B005946FFF771
:1032800025F904005CE6631C984622003B00594681
:103290002520A847444653E60C9B04330D93631C3A
:1032A0009946920700D422E10C9B220018785946D7
:1032B0003B00A84743464444012B00D885E2330035
:1032C000B8462E005F4625004C46994622004346EC
:1032D000013439002020B047AC42F7D12C00BB4666
:1032E000350047464E460D9B0C9329E6DB4B307864
:1032F000984600239946002800D012E60024AEE646
:103300006F2800D188E000D80BE31023782800D183
:10331000CFE09A430A239C4600230F930A330D9370
:1033200080E05646B1008919490001330E1818781B
:10333000303E010030390929F4D9B2461E0001336C
:10334000994628E60C9B023602CB8A46C943504672
:10335000C917084082460C933078731C99461AE6C8
:103360001023100098431133184381468020130026
:10337000C0000340024200D1A9E64B460693082351
:1033800005935346049310230393002302930F9B4A
:10339000220001931CAB009359463B002800FEF726
:1033A0009FFF434604000C93CAE501235B42C3E63A
:1033B0000F9B534501D953460F9302231800104029
:1033C0000D90134200D1B7E10D93D1460B1B9A46E5
:1033D0003300A1442E0022004D460C98B9465F46AA
:1033E0009B4608E04B463900541CB0475346185DD5
:1033F000002877D022009542F4D15B46BB464F4669
:10340000A94635004C461E00C9E680231B011A431D
:10341000FDE620231A4320E708239C4600230F9350
:1034200008330D9380231100DB0019401A4200D1AC
:1034300016E10D239A431000802302009B001A40DE
:103440001492184200D0C2E1802302005B001A40AF
:1034500091460C9A04320F92184200D0B7E243060C
:1034600000D59FE1030600D419E30C9B1B88099348
:10347000002B00D0FCE110339843002900D1F7E184
:103480000023994643460593534604930D9B0690AB
:1034900003930023D2E0582808D0622867D1022382
:1034A0009C4600230F9302330D93BBE720231A435E
:1034B000103B9C4600230F9310330D93B2E78023FB
:1034C0001B011A4320231A43A1E6C0239B001A4381
:1034D000F31C9946B07882E5C0231A43F31C994641
:1034E000B0787CE535005E46BB464F4657E643461E
:1034F000012B00D863E1631E43449A463300B9466A
:103500002E005F4655469B46A24622004B4601349C
:1035100039002020B047AC42F7D135005E46BB46AB
:103520004F46A14654460C9B4A46187859463B00E4
:103530004444A847D7E6A1460F9B984500D832E6F9
:103540004444E41A3300B8462E005F4625004C463A
:10355000994622004346013439002020B047AC424E
:10356000F7D12C00BB46350047464E461BE680236C
:103570001000DB0018401A4200D10FE111211800A1
:103580008A430D920D9A802311009B0019408C46AE
:103590001A4269D1802311005B00194089460C99B9
:1035A00004310F911A4200D0CAE113005B0600D526
:1035B000F0E013001B0600D459E20C9B00229B5E36
:1035C000D9175A184A4092B2D90F0C91002B00D14A
:1035D000F9E1100014AA944642461F231492524661
:1035E0006344A84616944D460400B946B2461F00EF
:1035F000159201E0202D0FD020000A21FDF714FFC5
:1036000001357E193031317020000A21FDF70CFFA1
:1036100026000400092EEDD8149B4F46A9464546C6
:103620009846159B56469A46169C0D9B0693434614
:103630000593534604930A2303930C9B02934B4632
:1036400001931CAB2200009359463B002800FEF773
:1036500047FE0F9B04000C9372E4C0463122001019
:103660000C239A431000E7E607220C9B0733934391
:10367000013294469C4462460C920CCBD90F0F91B8
:103680001100194300D191E0D917139112915140C3
:10369000109113995940119110981199129A139BF6
:1036A000801A99411090119114AA00239446424621
:1036B0009946149252461F336344A846B246169464
:1036C0004E46109C119DB94615921F0001E0202E18
:1036D00010D0200029000A220023FDF7E3FE013666
:1036E00030322B00BA550D0022000400002BEED121
:1036F000092AECD8149B1094119545469846159BC1
:103700004F46B14656469A46169C0D9B0693434635
:103710000593534604930A2303930F9B02934B464E
:1037200001931CAB2200009359463B002800FEF792
:10373000D7FD0400FFF704FC0F9B984500D8C1E1BA
:103740008023DB000D9343460F9A1B199B1A994661
:1037500033002E004D46B9465F469B460C91220031
:103760004B46013439002020B047AC42F7D14346E4
:103770000C9901330F930B7835000C935E46BB46D2
:103780004F46002B00D10EE50D9B002B00D1F6E437
:10379000002319E60C9B1B781A0015E710239A43A7
:1037A0000D92EFE60C9B1B78099361E60023994686
:1037B0000028AAD1002200231092119374E70C9BD9
:1037C0002200187859463B00A8474C468BE50C9AD6
:1037D000FA3BFF3B07329A430133994691444B46EB
:1037E0000C931368526815921A4306D11032904315
:1037F00000220992002900D081E06122810600D5D3
:103800004122D2B20A9214AA91460A9A00210A3A97
:10381000149242461792524618925A460991B3465C
:103820001F311E000F9B4944BA4619941A95002473
:10383000674698468946159D16901B920AE03032DD
:10384000D2B24B4601341A55A8454AD0202C4AD052
:1038500006000D003A00002330002900FDF722FE8B
:10386000D2B2092AEBD9149B9C466244D2B2E8E753
:103870006123820600D54123DBB20A3B0C93434609
:1038800014A91F228C46159353466244A046B246A3
:103890004C461797A9461700099D0D9E1490169344
:1038A00008E03033DBB201343B55B5420ED3202C57
:1038B0000CD0050031002800FDF7B6FDCBB2092978
:1038C000EFD90C9A94466344DBB2ECE7159B4D4666
:1038D000A14644469846169B564614989A46179F0A
:1038E000D0E5B742B2D9179B57469846189B5E461B
:1038F0009A461B9B09949B461698199C1A9D434611
:103900000593534604930D9B069003930023029363
:10391000099B05E70F9B984500D914E701330F93E6
:103920002DE41023110099430D91692800D0BAE0CD
:1039300080231000DB0018401A4200D122E61DE669
:103940000C9B1B68DA0F1100002B00D18CE0DA17FA
:103950009818504014AA914642461F23149252468A
:103960004B44A046A946169704006546B2461F0080
:103970000C91159201E0202D0FD020000A21FDF7B7
:1039800053FD01357E193031317020000A21FDF7D9
:103990004BFD26000400092EEDD8149B44469846A2
:1039A0000C9BAC461900159B56464D469A46169FF1
:1039B0000D9B0291069343460593534604930A23B5
:1039C000039363463CE6002800D02EE602E60C9BFB
:1039D0001B689946002B03D110339843002938D136
:1039E0006123820600D54123DBB20A3B0C93434698
:1039F0001693534614A91F228C4617932B0062443A
:103A0000A0464D46B246189799461700149C0D9E45
:103A1000159008E03033DBB201343B55B5420ED38C
:103A2000202C0CD0050031002800FDF7FDFCCBB2A6
:103A30000929EFD90C9A94466344DBB2ECE7169B54
:103A4000149444469846179B56464D469A461598F8
:103A5000189F43460593534604930D9B069003938A
:103A600000230293149BEBE50028A1D172E70C9B85
:103A70001B68D9175A184A40A6E580231000DB00BE
:103A800018409C460F901A420FD0022003001340AA
:103A90000F93104219D00023A1460F934CE50C9BC5
:103AA0001B680993E4E40A0034E402231800104080
:103AB0000D90134200D03EE54346002B00D042E675
:103AC000FFF771FB01330F937FE463460D93F3E738
:103AD00010B50C0084B00394012402A90290009355
:103AE000034813006242FFF703FA04B010BDC0465A
:103AF000BD24001010B5094A0300146884B0002CDE
:103B000008D0012200910648524203A9A047012093
:103B100004B010BD00F098F90020F9E7880E0020ED
:103B2000AD24001000BEFDE7094A0300106800281C
:103B300005D00849C3188B4207D813607047064860
:103B40000449C31810608B42F7D901204042F5E7C1
:103B5000840E002000000420BC0E002010B5FFF7EA
:103B6000E1FFC04670B5FDF713FB074D074EB542A8
:103B700009D20024013E761BB60808CD98472300E1
:103B80000134B342F9D170BDBC530010C4530010CE
:103B9000030010B5080011001B68984710BDC0460F
:103BA000F0B5C64600B5437D07000C001600002B9B
:103BB00046D0002A17DD0B780A2B24D00023984624
:103BC000012E13D001252900635C01350A2B26D074
:103BD000B542F8D1464509DCA419013C23780D3BD8
:103BE0005A4253413B7580BCB846F0BD4346E0188D
:103BF000A419F11A013C3B68984723780D3B5A42BF
:103C000053413B75EFE7037D002BD7D102210F48CD
:103C10003B689847012EDFD001239846D2E7631E08
:103C20005B5C0D2BD4D0884504DA4346C91AE018F2
:103C30003B689847022105483B68A8469847C7E774
:103C40000368110020009847CDE7C0464857001090
:103C5000F0B5C6460B6806000C0000B5802B06D0F8
:103C60005A1C2260E418267180BCB846F0BD0F4B88
:103C70001D68002D16D00B1D98460D4F02E02D69D2
:103C8000002D0FD02B68002BF9D03B68002B01D002
:103C9000AB42F4D1280041462268FFF781FF2D692D
:103CA000002DEFD101220023DBE7C046780E002073
:103CB000800E0020F0B54546DE464E465746E0B53C
:103CC00083B091461C0080460D00FDF7ABF8002341
:103CD000304A12184B41002B02DA01222E4B52427D
:103CE0002E4908008A4601F043FB07006B1C03D1F4
:103CF000404601F043F90500002C27D0284E294BFF
:103D00001C68002C18D04B46002B21D1264B99461D
:103D100002E02469002C0FD02368002BF9D04B4619
:103D20001B68002B01D09C42F3D120002A004146A1
:103D3000B0472469002CEFD1002F26D1280003B012
:103D4000F0BCBB46B246A946A046F0BD174ED6E72A
:103D5000154B99460A239B4602E02469002CEBD0C0
:103D60002368002BF9D04B461B68002B01D0A342DF
:103D7000F3D12A0041462000B0476B465A46200046
:103D8000DA71D91D0122B047E7E7504601F0D8FAB1
:103D9000D4E7C04640420F00FFFFFF7FA40700208A
:103DA000A13B0010780E0020800E0020913B0010F7
:103DB00000207047F0B5CE46474680B583B06B46CD
:103DC0000600DD1D2870FDF72DF80023194A121892
:103DD0004B41002B02DA0122174B524217490800CF
:103DE000884601F0C5FA164B81461C68002C14D099
:103DF000144F02E02469002C0FD02368002BF9D067
:103E00003B68002B01D09C42F4D120000122290004
:103E1000FFF7C6FE2469002CEFD14B46002B05D1DD
:103E2000300003B0C0BCB946B046F0BD404601F01A
:103E300087FAF5E740420F00FFFFFF7FA40700204D
:103E4000780E0020800E002070B5040001F096F876
:103E500001230100050001222000FFF72BFF084B82
:103E60001C68002C06D06368002B05D09847246995
:103E7000002CF8D1280070BD2469002CF3D1F9E79B
:103E8000780E0020F0B5CE46474680B5A3B00400BA
:103E90000D00FCF7C7FF0023274A12184B41002BE7
:103EA00002DA0122254B5242254E300001F060FA21
:103EB00000232200019307002B00224801A9FFF7ED
:103EC00007FE214B804699461C68019B002B1AD0A7
:103ED000002C2FD01D4D02E02469002C0FD0236848
:103EE000002BF9D02B68002B01D0A342F4D1200085
:103EF000019A02A9FFF754FE2469002CEFD14B462A
:103F00001C6800230193002C06D06368002B0BD0A3
:103F100098472469002CF8D1002F07D1404623B0E0
:103F2000C0BCB946B046F0BD2469ECE7300001F0F2
:103F300007FAF3E70194EFE740420F00FFFFFF7F2E
:103F4000A4070020513C0010780E0020800E0020B5
:103F50000FB400B583B004A901C90191FFF792FF26
:103F600003B008BC04B018477047C04670B50400E1
:103F7000C0680D00FEF744F9237DE07D0121C01AE1
:103F8000431E98410330684380B2A080FEF724F9B5
:103F90002B00E06000280FD06380A36A002B0AD0BA
:103FA0002069FEF72DF90121A088FEF715F920619F
:103FB000002804D0658070BD0023A080ECE7A080BD
:103FC0006080F8E7F0B5DE46574645464E46E0B518
:103FD0001D000023040089B043700372C3600361B5
:103FE0008362C3620363436317000391FCF71AFF04
:103FF0006378A061E161002B34D1E780A908C9B2E0
:104000002B0509021B0EEEB20B433604A909090663
:1040100033430B43674900220B40FF21A942524121
:104020002270E268E07D277D6361002A09D0C01B11
:10403000424250411A0EDBB2D31A5A4253419842BF
:104040000BD120000399FFF791FF200009B0F0BCCD
:10405000BB46B246A946A046F0BD20006188FFF7E6
:1040600085FFEEE7A379276A9946E380524BF9185A
:10407000636A090D9A462378002B33D0002900D1BA
:1040800094E04E4B1B689B4606314846C9B2FCF78C
:10409000B5F9012351464A460093380000F020FB51
:1040A00004AB984680235B0204935B465A46033375
:1040B000D2011B031343424A05201340424653607A
:1040C0004B469A02F823DB011A4080239B051343D9
:1040D0004246D3603B4B9360FCF7ACFFFEF706F81B
:1040E000394931E000295DD0344B1B689B460631CD
:1040F0004846C9B2FCF782F9012351464A4600936B
:10410000380000F0EDFA04AB984680235B0204937C
:104110005B465A460333D2011B031343284A05204A
:104120001340424653604B46F8229B02D201134093
:104130008022920513434246D360224B9360FCF7E2
:1041400079FFFDF7D3FF2149FDF7B5FFEC21890584
:10415000FDF7AEFF061CFDF7F1FF83B29946002084
:10416000002B0ED01800FDF7C1FF011C301CFDF71D
:104170009CFF8721C905FDF7B2FFFDF7DFFFC0B245
:1041800000024B461B0403435A4651460493380031
:10419000434600F0FFFA012351468B403A6813432F
:1041A0003B602BE70A4B1B689B46A0E7084B1B684C
:1041B0009B4669E7030303030000E0AF40020020D1
:1041C000FFFFFF9F000006500024F44A0024744AB9
:1041D00044020020F0B5D6464F464646C0B507001B
:1041E0000E007A48002186B000F0A4F90400431CB8
:1041F00000D17FE0764D2B68984601336AD0734B2F
:104200003B62744A06211368704D013313603B789A
:10421000FE807C62002B00D08BE03000FCF7EEF8D3
:104220000123210032000093280000F059FA02AB6C
:10423000994680235B020293434642460333D201F0
:104240001B031343644A052013404A465360F82277
:10425000B3028026D2011340B6051E434B464A46A0
:10426000DE605E4B9360FCF7E5FEFDF73FFF5C49C7
:10427000FDF721FFEC218905FDF71AFF8246FDF7C6
:104280005DFF86B20023002E0ED03000FDF72EFF1A
:10429000011C5046FDF709FF8721C905FDF71FFFE7
:1042A000FDF74CFFC3B21B023004184342464B4695
:1042B00002902100280000F06DFA0123A3402A6833
:1042C00013432B6001237B7006B0E0BCBA46B146B5
:1042D000A846F0BD434B3D481900984600F046F90A
:1042E000002865D12B689846384B3B624346013322
:1042F00000D086E700213C4800F01CF90400431C74
:1043000048D03A4D2B685A1C48D03149364A086883
:104310003A62184001303DD02E49FE804B687C62E5
:1043200001334B603B78002B2FD02B680721984638
:1043300015003000FCF762F80123210032000093E1
:10434000280000F0CDF902AB994680235B0202936E
:10435000434642460333D2011B0313431E4A052042
:1043600013404A465360F822B3028026D20113401C
:10437000B6051E434B464A46DE60184B9360FCF779
:1043800059FEFDF7B3FE1A4972E72B6807219846DC
:10439000150042E701235B427B6295E7114B12480F
:1043A0001900984600F0E2F8002808D12B68ACE725
:1043B0004146064800F018F98046286094E74146D7
:1043C000024800F011F9030028609EE70000205029
:1043D00044020020300B0020FFFFFF9F000006502A
:1043E0000024744A4C570010000030504002002056
:1043F0000024F44AF8B5C4680600002C1AD04378AB
:104400008788002B17D0756A6B1C13D0002F11D032
:104410002B0001211033994020000435326AE7193E
:10442000AD000478240653681942FCD10130AC5029
:104430008742F6D1F8BD8179FFF7CCFE0123737076
:10444000E1E7C046F8B5DE4657464E464546E0B57C
:10445000438804008B423DD9237A100E160C150AAE
:10446000002B3DD18346E068D7B28046A06AE27D4A
:10447000237DF6B2EDB2002846D0206981469A42EB
:104480004FD0890089444B46884459469954E37D6E
:10449000584643449A46636B984753461870237DA9
:1044A0004A46D654637D3000D554A37DD754237D2E
:1044B00043449946A36A98474B461870E36A28001C
:1044C000667D984746443070236B3800A57D984739
:1044D00045442870F0BCBB46B246A946A046F8BD8C
:1044E000FF2758433E403D4017405E435D435F43D6
:1044F000030AE0689B468046A06AE27D237D360A77
:104500002D0A3F0A0028B8D19A420FD05B46890095
:1045100041448B54237DCE54637DCD54A37DCF5431
:10452000D8E74A00521891449044B9E74A0051181C
:104530004144F0E710B50A4B0A4AC418240DA40000
:1045400082B0009208482200E31CFBF7E1FF84429E
:1045500002DC001B02B010BD01204042FAE7C04659
:104560000000E0AFD85400104C0E002070B50D00D4
:104570000400FBF795FF1A4A1A4B94460122644443
:10458000240DA400E65805212C792023A240695669
:10459000013A1B1B002913DB00248B420CDB1300A8
:1045A0008B401E4208D1AB79002B05D18A40140004
:1045B000344063425C41E4B2FBF77EFF200070BDF3
:1045C000002B02DA09E0013B07D314009C401900DC
:1045D0002642F8D1AB79002BE8D00024ECE7C046A6
:1045E0000000E0AF400E0020F0B557464546DE46DD
:1045F0004E468846E0B583B006000525FBF750FF20
:10460000434684465D571879334B344AF3181B0DE3
:104610009B009246D758012220248240241A013A56
:10462000002D41DBA54232DC1100A9400F422ED102
:1046300041460968894641468979002945D12C00BF
:10464000AA40934659463A40394241D180218901D6
:104650008846002816D06146A44634004E46994646
:10466000030001915100705A404500D24019A91829
:1046700012318900013208519A42F3D3019B6446FA
:104680009C464B465A4617435246D75001E00124F8
:1046900064426046FBF710FF200003B0F0BCBB464D
:1046A000B246A946A046F0BD002C02DA10E0013C5B
:1046B0000ED31100A14025000F42F8D141460968F0
:1046C0008946414689790029BAD014246442E0E73A
:1046D00009246442DDE7C0460000E0AF400E002040
:1046E000F0B54E464546DE465746E0B583B08946AE
:1046F0000CA984460D781F2A45D8494649008846AA
:104700004944C900461837003400DC373868CC34D7
:1047100083462068310001901C4880248246A40210
:1047200051440C6069424D411E216D428D43184930
:104730008A465544052B0CD9A0201F214005D836A8
:10474000540104430532053B3C600A403560052BAB
:10475000F6D852019B06134342464A44D2006244B3
:104760001000DC3213600300D8331D605B46136019
:10477000019BCC300360002003B0F0BCBB46B246C6
:10478000A946A046F0BD05204042F5E7CC30000028
:104790009FE00000F0B501258D400468AC43046043
:1047A000002B2ED04D006C18E400041926001F6861
:1047B000C83637609F68043677605F68DB68DC3432
:1047C000376023606B18184DDB00AC468025C41899
:1047D00064442D0625602560144C0D1D8C408460BA
:1047E00001242600AE40802508318C401F21AD01F8
:1047F0004519C0180A40D8302E602C600260002095
:10480000F0BD4D006C18E400041926008027C8365E
:104810007F023760C0273F03B760F82704367F0266
:10482000DC3437602360CDE7D010000001010101C6
:1048300010B5010000230022002000F0CDFB10BDC8
:10484000030010B50A0003490868190000F004F8D5
:1048500010BDC0465806002070B50B0C0024150C86
:10486000002B28D1002D3CD18BB291B2594300F0DE
:1048700051F8051E33D00300083B5A6803239A43BE
:10488000043A242A12D80300132A0AD90460446087
:1048900008331B2A05D98460C460242A2AD0030067
:1048A000103300221A605A609A6002E00021FDF77E
:1048B000B3FC280070BD002D16D1151C89B292B230
:1048C0004A43ADB29BB26B43110C5B18190C0BD170
:1048D000190492B2114300F01DF8051ECBD100253A
:1048E000E7E72B1C0D1CE9E700F01CFB0C2300255F
:1048F0000360DEE70300046118334461D1E7C0467A
:1049000010B5034B0100186800F020FC10BDC04634
:1049100058060020F0B54E464546DE465746E0B5FF
:104920000D000B35060085B0162D21D8102900D9B1
:10493000D4E000F0D5FA102518230221CA4FFB1845
:104940001A005C68083A944200D186E10322636849
:10495000A1689343E268CA6091600121E3185A6834
:1049600030000A435A6000F0C3FA20000830B8E073
:1049700007239D4300D5B1E0A94200D9AEE000F085
:10498000AFFAFC235B009D4200D2E0E1690A00D14E
:10499000AEE0042900D9A1E138239846A90988444A
:1049A0003931CB00082252429446AF4FFB189C4449
:1049B0006346DC68A44514D0032399460B00614686
:1049C0009C4607E0E068002A00DB40E1814200D11C
:1049D00041E104004A46636893435A1B0F2AF1DD04
:1049E00041463A003C690832944200D11EE103205E
:1049F00063688343581B0F2800DDACE13A617A619C
:104A00000028AADA7A68904680229200934200D366
:104A100036E1DA08580901238340404618438046AE
:104A2000D300DB199A687860E360A2609C60D46070
:104A300001208B109840404562D8434603420AD17A
:104A400003239943434640000431034203D140000D
:104A500004310342FBD00323B3469C460E00B84604
:104A60000190F00040440100B246CB680BE0644680
:104A70005A681F00A243DB68541B0F2C00DD39E18C
:104A8000002C00DB53E19942F1D101239946CA443D
:104A9000534608319B07E8D1032205E00368083834
:104AA000013E834200D013E23242F7D14346019ADD
:104AB0005B68934342465360019A520001929A42C6
:104AC0001CD8002A06D119E004229146019ACA4452
:104AD000520001921342F7D05646C2E70C233360CE
:104AE000002005B0F0BCBB46B246A946A046F0BDCA
:104AF00080233F22402190469B0053E75E46474675
:104B00000322BC68636893439846AB4203D35B1BA4
:104B10000F2B00DD8DE0230043440293534B08200C
:104B20001B6810335B19019300F01AFA5049039087
:104B30000B688A46013306D08446019B4242013B02
:104B40006344134001933000019900F0D9F9030048
:104B50008146013300D11CE1029B834200D916E15A
:104B6000444B02989B461A68019B59469C466244F6
:104B70000A6003990139484500D157E153461B6843
:104B8000013300D15EE14B4602981B1A9B185A462E
:104B9000136007234A4648461A400292184200D141
:104BA00015E10398013384469B1A019A99444A44BB
:104BB000019263440A409B1A194030008A4600F073
:104BC0009FF9431C00D158E14B46C01A03005344DF
:104BD00001935B461A68012052441A604B464946CD
:104BE000BB60019B03434B60BC4213D043460F2B79
:104BF00000D82BE107210C3B8B4361680140052065
:104C000019436160E118486088600F2B00D93FE1CB
:104C10004B465B6818490868904200D20A60174901
:104C20000868904200D20A604C46B4E07B6898461F
:104C3000FEE601222900134311436519616030002B
:104C4000BD606B6000F054F92000083049E7A268AD
:104C5000D060826081E66146C3E6DC680231A3422F
:104C600000D1BEE672E6C04650020020040D0020CE
:104C700048020020D40C0020FC0C0020000D002075
:104C80005A0A042A7CD9142A00D9B0E010005B30FB
:104C900082465C32D200082040428446BA189444CE
:104CA000624692680B308146944500D186E0080048
:104CB000A2466146844602E09268914204D04C4686
:104CC0005068A0439842F7D8D368614654469C4642
:104CD0006346A260E3609C60D460A9E6142967D9AA
:104CE000542900D98CE06E239846290B88446F31F3
:104CF000CB0057E6BA460120514684464919054380
:104D000050464560856847466046EB605E469D605C
:104D1000534639617961204308374860CF603000DD
:104D20008F609C5000F0E4F850460830D9E6BA464F
:104D300001205E465244516801435160BA68300018
:104D4000D3609A6000F0D4F838000830C9E62B0030
:104D5000E9080833F2E56119884601218C460D43C4
:104D60004146656039617961CA608A606246024382
:104D70004A60E050300000F0BBF820000830B0E698
:104D80009A091000393238308246D20083E7BC429B
:104D900041D0BC686368032293431A005B1BAA429C
:104DA00002D30F2B00DD44E7300000F0A1F897E6B6
:104DB0005B23984688445C31CB00F3E5534698105A
:104DC00001238340404618438046786080E7019B7A
:104DD000039A4B440B40D31A194030008A4600F026
:104DE0008FF8431C00D0EFE600239A46F1E6542AE0
:104DF0002ED81A0B10006F326E308246D2004AE76E
:104E0000AA235B0099422ED8DD3B9846E90B8844E3
:104E10007831CB00C6E5304B9B461A68019B9C4617
:104E20005B4662441A60039B591EA7E64846084247
:104E300000D0A3E6B9684344894601210B434946A3
:104E40004B60E7E653464A461A60A2E64860ABE785
:104E5000AA204000824226D8DA0B10007832773040
:104E60008246D20017E71D4B994226D87C239846EC
:104E7000A90C88447D31CB0094E5019A029B9446AD
:104E80004A46083B63449B1A019300239A46A0E6D6
:104E900021003000083100F059F95B461A68BB6800
:104EA00099465B68B6E60D4882420CD89A0C100011
:104EB0007D327C308246D200EDE6FE237E227F21C9
:104EC00090469B006EE5FE227E2092008246E2E63E
:104ED00043465B68F0E5C046D40C00205405000052
:104EE00010B5024800F038F810BDC046D00C0020C4
:104EF00010B5024800F032F810BDC046D00C0020BA
:104F0000002370B5064C050008002360FEF70CFE78
:104F1000431C00D070BD2368002BFBD02B60F9E749
:104F20007C0E0020014B18687047C04658060020D0
:104F300070B5074C074D641BA41005D0013CA300BD
:104F4000EB589847002CF9D100F0F8F970BDC04635
:104F5000C4530010C45300107047C0467047C04689
:104F6000802310B55B01082801D1180010BDFFF7A0
:104F7000D9FF16230360173BF7E7C04610B5830738
:104F80000AD00300032102E001330B4205D01A7856
:104F9000002AF9D1181A10BD030019680C4A0D4CEB
:104FA0008A188A4322420FD15968094A04338A1861
:104FB0008A43224208D15968054A04338A188A4331
:104FC0002242F1D000E001331A78002AFBD1E1E758
:104FD000FFFEFEFE80808080F0B5D6464F464646F6
:104FE0009846244BC0B5060018689A460F009146B3
:104FF000FFF7B2FF204B1D68002D32D053466C687E
:1050000018681F2C30DC002E0CD1631C0234A40065
:105010006B606751FFF7A2FF0020E0BCBA46B146C3
:10502000A846F0BD49468822A300EB189950C42138
:1050300049008C46AC446146873AA24009689146D3
:105040001143624611608421424649005A50022EA3
:10505000DBD129004A468D31FF310B6813430B60C9
:10506000D3E7064D1D60C9E7FFF778FF01204042F6
:10507000D3E7C046A0070020380B00203C0B0020DF
:10508000034B10B5002B02D00248FFF7D1FB10BD37
:1050900000000000314F0010F0B5C646060000B514
:1050A00008200D00FFF75CFF04003000FFF718FF39
:1050B000234B210098469B685F6803239F43380079
:1050C0001138401B0019FCF7AFF9451E6543AC428F
:1050D00008DC00213000FFF713FF43469B68DB1913
:1050E000984206D03000FFF703FF002080BCB8468E
:1050F000F0BD30006942FFF703FF01300ED00122FE
:1051000043467F1B9B6817430E4A5F60136830005D
:105110005B1B1360FFF7ECFE0120E7E70021300086
:10512000FFF7EEFE43469A68831A0F2BDADD064C32
:1051300004492468001B086001210B435360D1E738
:1051400050020020D40C002048020020F0B5D646C2
:105150004F46464605000C00C0B5002948D0FFF771
:10516000BFFE2100012708394B6803209C46BB4342
:10517000CE18726882436046384080466A4891463D
:105180008468B44200D17CE07260B41864683C402A
:10519000A2464446002C30D10C68A446091B8C68FA
:1051A0006344A4460824A0468044C4455CD0CC682F
:1051B000A04664464246E26094605246002A1FD0F0
:1051C0001F434F60336080229200934230D2DA084E
:1051D0005C090123A340446823434360D3001B18A8
:1051E0009A68CB608A609960D1602800FFF780FEE2
:1051F000E0BCBA46B146A846F0BD5246002A0FD1DF
:1052000001224B44CF18BC46B468484F1A43BC42F5
:105210005BD0F668E660B4604A6062461360D2E72D
:1052200062463A434A608022336092009342CED372
:105230005C0A042C3FD89C09260039343836E40037
:1052400004192268083C0327944203D14EE0926877
:10525000944203D05068B8439842F8D8D468CC60E0
:105260008A60A160D160C0E75246002A35D14B4424
:105270001A00B068F3681743C36098604F608A50A3
:10528000B3E74B441A004346002B06D10B68C91AFA
:105290008C68D218CB68E3609C60012313434B6099
:1052A000234B81601B6893429FD8224B28001968CA
:1052B000FFF7F2FE99E7142C13D9542C1DD81C0BC0
:1052C00026006F346E36E400BAE7E160A1604A6000
:1052D0006246CC608C60136087E71F434F60336089
:1052E00083E726005C345B36E400A9E70123B610AF
:1052F000B340466833434360B1E7AA225200944268
:1053000005D8DC0B260078347736E40098E70A4AA3
:10531000944205D89C0C26007D347C36E4008FE74F
:10532000FE247E26A4008BE75002002058020020B5
:105330004C020020040D002054050000F8B5C046C2
:1053400001B40248844601BC604700BF59010020F7
:1053500001B40248844601BC604700BF81010020BF
:1053600001B40248844601BC604700BF81010020AF
:1053700001B40248844601BC604700BFC100002060
:10538000B9110010E5110010C91300100922001016
:105390006D1A001049210010F112001001120010C6
:1053A0002112001035120010790600103D12001075
:1053B000F909001081110010CD0500108150001076
:0453C000890200104E
:1053C800636F6E6669677572696E67206C65647372
:1053D800000000006C65647320636F6E6669677512
:1053E8007265642C207475726E696E672070696EC0
:1053F80073206F6E000000007475726E696E67200E
:105408006F6E2070696E2025640A00007475726ED4
:10541800696E67206F66662070696E2025640A00D1
:105428000A2A2A2A2050414E4943202A2A2A0A00B9
:105438000A000000486172647761726520616C61DE
:10544800726D20256420616C726561647920636CDB
:1054580061696D656400000048617264206173735E
:10546800657274004F7574206F66206D656D6F727C
:105478007900000052656C6561736500626F6F7436
:10548800325F77323571303830000000302E31000D
:10549800322E322E300000007069636F0000000069
:1054A80074657374626F61726400000046656220FF
:1054B8003130203230323600666E692B0000000031
:1054C800666E69006E616E00666E692D00000000F0
:1054D8004E6F2050494F207374617465206D61636D
:1054E80068696E65732061726520617661696C61B7
:1054F800626C650006005250D3F075427C5400106F
:1055080006005250E182887F8454001006005250F1
:105518003ABCA9119454001006005250ABB3605322
:105528009854001006005250BBFF3CB6A05400101F
:1055380006005250861C0302A85400100600525060
:105548005422A29DB454001005005250DE65F46840
:10555800685E0010C82F0010782F0010782F0010F8
:10556800C02F0010782F0010782F0010782F00100F
:10557800782F0010782F0010782F0010782F001047
:10558800B82F0010782F0010B02F0010782F0010BF
:10559800782F0010A82F0010E8310010DE2F00101F
:1055A800D8310010DE2F0010C2310010DE2F00109D
:1055B800DE2F0010DE2F0010DE2F0010DE2F00106F
:1055C800DE2F0010DE2F0010D02F0010DE2F00106D
:1055D800DE2F0010DE2F0010DE2F0010DE2F00104F
:1055E800D02F001086320010322F0010322F0010FA
:1055F800322F0010322F0010322F0010322F0010DF
:10560800322F0010322F0010322F0010322F0010CE
:10561800322F0010322F0010322F0010322F0010BE
:10562800322F0010322F0010322F0010322F0010AE
:10563800322F0010322F0010322F0010322F00109E
:10564800322F0010322F0010322F0010322F00108E
:10565800322F0010322F0010322F0010322F00107E
:10566800322F0010FC31001054320010FC310010B1
:10567800322F0010322F0010322F0010322F00105E
:10568800322F0010322F0010322F0010322F00104E
:10569800322F0010322F0010322F0010322F00103E
:1056A800322F0010322F0010322F0010322F00102E
:1056B80096340010322F0010322F0010322F0010B5
:1056C800322F0010322F0010322F0010322F00100E
:1056D800322F0010322F001096340010983200102C
:1056E80096340010FC31001054320010FC310010C8
:1056F800000000000000F03F00000000000024400F
:1057080000000000000059400000000000408F40E9
:10571800000000000088C34000000000006AF84054
:105728000000000080842E4100000000D012634178
:105738000000000084D797410000000065CDCD41EE
:105748000D0A00005457001004FF000021622311C5
:04575800001442A453
:10575C00FC54001008550010145500102055001072
:10576C002C550010385500104455001050550010A1
:10577C00F0B5C646150000B504001E000268EFF334
:10578C00108172B61368002BFCD0BFF35F8F04231B
:10579C00E3562268002B2BDBBFF35F8F00201060D9
:1057AC0081F31088D02212061278002752B290464C
:1057BC009A420ED1002080BCB846F0BDBFF35F8F7B
:1057CC00176081F310882800310000F035F80028AC
:1057DC00F0D12268EFF3108172B61368002BFCD065
:1057EC00BFF35F8F237922687F2BE7D9434602E012
:1057FC00D0231B061B682371BFF35F8F002313603C
:10580C0081F310880120D6E70268EFF3108172B69D
:10581C001368002BFCD0BFF35F8FFF230371036869
:10582C00BFF35F8F00221A6081F3108840BF70476E
:10583C007047C0460000000001B40248844601BC19
:10584C00604700BFF50C00100000000001000000D4
:10585C00020000000300000004000000050000002E
:10586C00060000000700000008000000090000000E
:10587C000A0000000B0000000C0000000D000000EE
:10588C000E0000000F0000001000000011000000CE
:10589C0012000000130000001400000015000000AE
:1058AC0016000000170000001A0000001B0000008A
:1058BC001C000000100000000000000000000000B0
:1058CC00000000000000000000000000B0070020F5
:1058DC00503300004C3300005433000052330000AE
:1058EC004D5300004D43000053340000433400007E
:1058FC00FFFFFFFFFFFFFFFFFFFFFFFF00000200A6
:10590C0000000000000000005002002050020020A7
:10591C005802002058020020600200206002002083
:10592C006802002068020020700200207002002033
:10593C0078020020780200208002002080020020E3
:10594C008802002088020020900200209002002093
:10595C009802002098020020A0020020A002002043
:10596C00A8020020A8020020B0020020B0020020F3
:10597C00B8020020B8020020C0020020C0020020A3
:10598C00C8020020C8020020D0020020D002002053
:10599C00D8020020D8020020E0020020E002002003
:1059AC00E8020020E8020020F0020020F0020020B3
:1059BC00F8020020F8020020000300200003002061
:1059CC00080300200803002010030020100300200F
:1059DC0018030020180300202003002020030020BF
:1059EC00280300202803002030030020300300206F
:1059FC00380300203803002040030020400300201F
:105A0C0048030020480300205003002050030020CE
:105A1C00580300205803002060030020600300207E
:105A2C00680300206803002070030020700300202E
:105A3C0078030020780300208003002080030020DE
:105A4C00880300208803002090030020900300208E
:105A5C009803002098030020A0030020A00300203E
:105A6C00A8030020A8030020B0030020B0030020EE
:105A7C00B8030020B8030020C0030020C00300209E
:105A8C00C8030020C8030020D0030020D00300204E
:105A9C00D8030020D8030020E0030020E0030020FE
:105AAC00E8030020E8030020F0030020F0030020AE
:105ABC00F8030020F803002000040020000400205C
:105ACC00080400200804002010040020100400200A
